{
  "contractName": "MerkleProofVerification",
  "abi": [
    {
      "inputs": [],
      "stateMutability": "nonpayable",
      "type": "constructor"
    },
    {
      "anonymous": false,
      "inputs": [
        {
          "indexed": false,
          "internalType": "bytes32",
          "name": "root",
          "type": "bytes32"
        }
      ],
      "name": "MerkleRootStored",
      "type": "event"
    },
    {
      "anonymous": false,
      "inputs": [
        {
          "indexed": false,
          "internalType": "bool",
          "name": "isValid",
          "type": "bool"
        },
        {
          "indexed": false,
          "internalType": "string",
          "name": "message",
          "type": "string"
        }
      ],
      "name": "VerificationResult",
      "type": "event"
    },
    {
      "inputs": [],
      "name": "merkleRoot",
      "outputs": [
        {
          "internalType": "bytes32",
          "name": "",
          "type": "bytes32"
        }
      ],
      "stateMutability": "view",
      "type": "function",
      "constant": true
    },
    {
      "inputs": [],
      "name": "owner",
      "outputs": [
        {
          "internalType": "address",
          "name": "",
          "type": "address"
        }
      ],
      "stateMutability": "view",
      "type": "function",
      "constant": true
    },
    {
      "inputs": [
        {
          "internalType": "bytes32",
          "name": "_merkleRoot",
          "type": "bytes32"
        }
      ],
      "name": "setMerkleRoot",
      "outputs": [],
      "stateMutability": "nonpayable",
      "type": "function"
    },
    {
      "inputs": [
        {
          "internalType": "bytes32",
          "name": "transactionHash",
          "type": "bytes32"
        },
        {
          "internalType": "bytes32[]",
          "name": "proof",
          "type": "bytes32[]"
        }
      ],
      "name": "verifyTransactionInclusion",
      "outputs": [
        {
          "internalType": "bool",
          "name": "isValid",
          "type": "bool"
        },
        {
          "internalType": "string",
          "name": "message",
          "type": "string"
        }
      ],
      "stateMutability": "view",
      "type": "function",
      "constant": true
    }
  ],
  "bytecode": "0x608060405234801561001057600080fd5b50336000806101000a81548173ffffffffffffffffffffffffffffffffffffffff021916908373ffffffffffffffffffffffffffffffffffffffff16021790555061087a806100606000396000f3fe608060405234801561001057600080fd5b506004361061004c5760003560e01c80632eb4a7ab146100515780637cb647591461006f5780638da5cb5b1461008b5780639c1e0149146100a9575b600080fd5b6100596100da565b60405161006691906105f5565b60405180910390f35b6100896004803603810190610084919061041a565b6100e0565b005b6100936101b1565b6040516100a091906105aa565b60405180910390f35b6100c360048036038101906100be9190610443565b6101d5565b6040516100d19291906105c5565b60405180910390f35b60015481565b60008054906101000a900473ffffffffffffffffffffffffffffffffffffffff1673ffffffffffffffffffffffffffffffffffffffff163373ffffffffffffffffffffffffffffffffffffffff161461016e576040517f08c379a000000000000000000000000000000000000000000000000000000000815260040161016590610610565b60405180910390fd5b806001819055507f7d07748c333d9debe70195bc2a30e1c28aa70485cd401919fe35c78564ac67da6001546040516101a691906105f5565b60405180910390a150565b60008054906101000a900473ffffffffffffffffffffffffffffffffffffffff1681565b600060606000801b600154141561020a5760006040518060600160405280603c815260200161077c603c9139915091506102d7565b6000801b85141561023957600060405180606001604052806033815260200161081260339139915091506102d7565b6000610289858580806020026020016040519081016040528093929190818152602001838360200280828437600081840152601f19601f82011690508083019250505050505050600154886102df565b905080156102b65760016040518060600160405280602b81526020016107e7602b913992509250506102d7565b60006040518060600160405280602f81526020016107b8602f913992509250505b935093915050565b60008082905060005b85518110156103ad57600086828151811061032c577f4e487b7100000000000000000000000000000000000000000000000000000000600052603260045260246000fd5b6020026020010151905080831161036d57828160405160200161035092919061057e565b604051602081830303815290604052805190602001209250610399565b808360405160200161038092919061057e565b6040516020818303038152906040528051906020012092505b5080806103a5906106d1565b9150506102e8565b508381149150509392505050565b60008083601f8401126103cd57600080fd5b8235905067ffffffffffffffff8111156103e657600080fd5b6020830191508360208202830111156103fe57600080fd5b9250929050565b60008135905061041481610764565b92915050565b60006020828403121561042c57600080fd5b600061043a84828501610405565b91505092915050565b60008060006040848603121561045857600080fd5b600061046686828701610405565b935050602084013567ffffffffffffffff81111561048357600080fd5b61048f868287016103bb565b92509250509250925092565b6104a48161064c565b82525050565b6104b38161065e565b82525050565b6104c28161066a565b82525050565b6104d96104d48261066a565b61071a565b82525050565b60006104ea82610630565b6104f4818561063b565b935061050481856020860161069e565b61050d81610753565b840191505092915050565b600061052560258361063b565b91507f4f6e6c792074686520636f6e7472616374206f776e65722063616e2063616c6c60008301527f20746869730000000000000000000000000000000000000000000000000000006020830152604082019050919050565b600061058a82856104c8565b60208201915061059a82846104c8565b6020820191508190509392505050565b60006020820190506105bf600083018461049b565b92915050565b60006040820190506105da60008301856104aa565b81810360208301526105ec81846104df565b90509392505050565b600060208201905061060a60008301846104b9565b92915050565b6000602082019050818103600083015261062981610518565b9050919050565b600081519050919050565b600082825260208201905092915050565b600061065782610674565b9050919050565b60008115159050919050565b6000819050919050565b600073ffffffffffffffffffffffffffffffffffffffff82169050919050565b6000819050919050565b60005b838110156106bc5780820151818401526020810190506106a1565b838111156106cb576000848401525b50505050565b60006106dc82610694565b91507fffffffffffffffffffffffffffffffffffffffffffffffffffffffffffffffff82141561070f5761070e610724565b5b600182019050919050565b6000819050919050565b7f4e487b7100000000000000000000000000000000000000000000000000000000600052601160045260246000fd5b6000601f19601f8301169050919050565b61076d8161066a565b811461077857600080fd5b5056fe4d65726b6c6520726f6f74206973206e6f74207365742e2043616e6e6f7420766572696679207472616e73616374696f6e20696e636c7573696f6e2e5472616e73616374696f6e206973204e4f5420696e636c7564656420696e20746865204d65726b6c6520747265652e5472616e73616374696f6e20697320696e636c7564656420696e20746865204d65726b6c6520747265652e5472616e73616374696f6e206861736820697320656d7074792e2043616e6e6f742076657269667920696e636c7573696f6e2ea2646970667358221220f396416b6b1a6cdd65cb2701c32ee503be9941316a6a4f85a4f909fc23ca472a64736f6c63430008000033",
  "immutableReferences": {},
  "source": "// SPDX-License-Identifier: MIT\r\npragma solidity ^0.8.0;\r\n\r\nimport \"@openzeppelin/contracts/utils/cryptography/MerkleProof.sol\";\r\n\r\ncontract MerkleProofVerification {\r\n    address public owner;\r\n    bytes32 public merkleRoot;\r\n\r\n    event MerkleRootStored(bytes32 root);\r\n    event VerificationResult(bool isValid, string message);\r\n\r\n    // Modifier to restrict access to the contract owner\r\n    modifier onlyOwner() {\r\n        require(msg.sender == owner, \"Only the contract owner can call this\");\r\n        _;\r\n    }\r\n\r\n    constructor() {\r\n        owner = msg.sender; // Set the owner to the address that deploys the contract\r\n    }\r\n\r\n    // Set the Merkle Root (only callable by the owner)\r\n    function setMerkleRoot(bytes32 _merkleRoot) external onlyOwner {\r\n        merkleRoot = _merkleRoot;\r\n        emit MerkleRootStored(merkleRoot); // Emit an event whenever the Merkle root is updated\r\n    }\r\n\r\n    // Verify if a transaction hash is part of the Merkle tree using a proof\r\n    function verifyTransactionInclusion(\r\n        bytes32 transactionHash,\r\n        bytes32[] calldata proof\r\n    ) external view returns (bool isValid, string memory message) {\r\n        // Check if the Merkle root is set\r\n        if (merkleRoot == bytes32(0)) {\r\n            return (\r\n                false,\r\n                \"Merkle root is not set. Cannot verify transaction inclusion.\"\r\n            );\r\n        }\r\n\r\n        // Check if the transaction hash is valid\r\n        if (transactionHash == bytes32(0)) {\r\n            return (\r\n                false,\r\n                \"Transaction hash is empty. Cannot verify inclusion.\"\r\n            );\r\n        }\r\n\r\n        // Use OpenZeppelin's MerkleProof.verify function\r\n        bool verified = MerkleProof.verify(proof, merkleRoot, transactionHash);\r\n\r\n        if (verified) {\r\n            return (true, \"Transaction is included in the Merkle tree.\");\r\n        } else {\r\n            return (false, \"Transaction is NOT included in the Merkle tree.\");\r\n        }\r\n    }\r\n}\r\n",
  "sourcePath": "C:\\webdevelopment\\caterlabstask\\MerkleProofVerification\\smartcontractformerkleverify\\contracts\\merkelproof.sol",
  "compiler": {
    "name": "solc",
    "version": "0.8.0+commit.c7dfd78e.Emscripten.clang"
  },
  "schemaVersion": "3.4.16",
  "updatedAt": "2024-11-08T17:38:30.927Z",
  "networkType": "ethereum",
  "devdoc": {
    "kind": "dev",
    "methods": {},
    "version": 1
  },
  "userdoc": {
    "kind": "user",
    "methods": {},
    "version": 1
  }
}